:100B6D001808A500000000000000000000000000B3
:0A0B7D000000000000000000005A14
:100C6600120BFC120A8A1208001209291209938033
:010C7600F588
:100B8B007F01E4FEEFC3941674809480500CAD0784
:0C0B9B000F74082DF8E62EFE80EAAF066D
:010BA700222B
:10099300852D09852E0A852F0BE531F50CE530F5FC
:1009A3000DE533F50EE532F50FE535F510E534F5D4
:1009B30011E528F512E527F513E52AF514E529F5E0
:1009C30015E52CF516E52BF517E522F518E521F5C8
:1009D30019E524F51AE523F51BE526F51CE525F5B0
:1009E3001D120B8B8F1E7B007A0079087D18020B7A
:0109F30029DA
:030B870001390031
:100BFC00759850438E01438E0475D7D575D6FF4337
:070C0C008E10D2ACD2AF2222
:03002300020C8646
:0E0C8600309802C298309905C2997539003233
:0A0C9400E53970FC8F9975390122D3
:100C5300120A44FF600C120C94740129F9E43AFA65
:030C630080EE22FE
:060B29008B368A37893883
:100B2F00E4FEEEC39D5017AB36AA37A938AF060EB9
:0E0B3F008F82758300120A5DFF120C9480E411
:010B4D002285
:100BA800D293D29400000000000000000000C2941C
:0D0BB80000000000000000000000C29322B9
:100BC500C293C29400000000000000000000D2940F
:0D0BD50000000000000000000000D293228C
:100B4E0000000000000000000000D293A29492D595
:0F0B5E0000000000000000000000C293A2D5229A
:080AFA00120A00120AC5D20025
:100B0200A200929400000000000000000000D293B6
:100B120000000000000000000000000000000000D3
:070B220000000000C2932255
:100AC500E4FFD294FEEEC39408748094805025EF21
:100AD50025E0FF00000000000000000000D293A206
:100AE50094E433420700000000000000000000C24B
:040AF500930E80D10B
:010AF90022DA
:0C09F4007D027F37120C13120BA87F1835
:100A0000E4FEEEC39408748094805035EF25E0FF37
:100A1000929400000000000000000000D29300004B
:100A200000000000000000000000000000000000C6
:100A30000000C293000000000000000000000E80D3
:040A4000C1020B4E96
:020BE200AD075D
:100BE400120BA87FD0120A00AF05120A00120BA83C
:080BF4007FD1120AFA020BC5C1
:100C1300AC07120BA87FD0120A00AF04120A00AF70
:070C230005120A00020BC5D7
:0E0C770000007F017EC37D88DDFEDEFCDFFA1B
:010C8500224C
:020C2A00AB0716
:100C2C001209F4AF03120A00120BA87F19120AFA68
:030C3C00020BC5E3
:100C3F00AB05AA071209F4AF02120A00AF03120A9A
:040C4F0000020BC5CF
:100A8A0079087B9A7A7A7D807F6B120C13DAFEDB07
:100A9A00FCD9FA7D077F1A120C137F19120C137DE9
:100AAA00187F1B120C137D087F1D120C137D107FFB
:0B0ABA001C120C137D167F0A020C3F7B
:100800007F3B120BE2AC077F3C120BE2AD07ECFE24
:100810007C00E42DF531EC3EF5307F3D120BE2AC6F
:10082000077F3E120BE2AD07ECFE7C00E42DF533B2
:10083000EC3EF5327F3F120BE2AC077F40120BE239
:10084000AD07ECFE7C00E42DF535EC3EF5347F433E
:10085000120BE2AC077F44120BE2AD07ECFE7C000A
:10086000E42DF528EC3EF5277F45120BE2AC077F1F
:1008700046120BE2AD07ECFE7C00E42DF52AEC3EBF
:10088000F5297F47120BE2AC077F48120BE2AD0758
:0C089000ECFE7C00E42DF52CEC3EF52B7A
:01089C002239
:030C9E00020BE264
:030CA100020C2A18
:100929007D167F0A120C3F120C777F03120C2AAA3C
:10093900077F04120C2AEFFEEA7C002400F522EC62
:100949003EF5217F05120C2AAA077F06120C2AEF11
:10095900FEEA7C002400F524EC3EF5237F07120C07
:100969002AAA077F08120C2AEFFE7C00E42AF52642
:10097900EC3EF5257F10120C2A8F2D7F11120C2ABF
:090989008F2E7F12120C2A8F2F11
:010992002242
:0300000002089D56
:0C089D00787FE4F6D8FD7581390208E48C
:100A4400BB010689828A83E0225002E722BBFE02B0
:090A5400E32289828A83E49322E3
:100A5D00BB010CE58229F582E5833AF583E022504E
:100A6D0006E92582F8E622BBFE06E92582F8E22298
:0D0A7D00E58229F582E5833AF583E49322B2
:1008A900020C66E493A3F8E493A34003F68001F2F3
:1008B90008DFF48029E493A3F85407240CC8C33350
:1008C900C4540F4420C8834004F456800146F6DF1F
:1008D900E4800B0102040810204080900B6DE47E37
:1008E900019360BCA3FF543F30E509541FFEE49314
:1008F900A360010ECF54C025E060A840B8E493A3DB
:10090900FAE493A3F8E493A3C8C582C8CAC583CA05
:10091900F0A3C8C582C8CAC583CADFE9DEE780BEBD
:010B8A00006A
:00000001FF
